:020000040800F2
:100000003825002049970008B58D0008B78D0008F5
:10001000B98D0008BB8D0008BD8D000800000000F0
:10002000000000000000000000000000BF8D00087C
:10003000C18D000800000000C38D0008C58D0008B8
:10004000A9970008AD970008B1970008CD8D00086A
:10005000B5970008B9970008D58D0008DF8D000816
:10006000BD970008C1970008E98D0008C5970008F2
:10007000C9970008CD970008F38D0008D1970008B4
:10008000D5970008D9970008DD970008E197000888
:10009000E5970008E9970008ED970008F197000838
:1000A000F5970008F9970008FD97000801980008E7
:1000B00005980008099800080D9800081198000894
:1000C00015980008199800081D9800082198000844
:1000D000FD8D000825980008299800082D98000833
:1000E0003198000835980008399800083D980008B4
:1000F000118E0008198E0008218E00084198000812
:1001000045980008499800084D9800085198000843
:1001100055980008599800085D98000861980008F3
:1001200065980008699800086D98000871980008A3
:1001300075980008799800087D9800082DE9F14F1E
:10014000B0B0924604910DF142013A9A2B91994632
:100150004A7000200AE01AF8011B0498309A904770
:100160000028049000F06A860D98401C0D909AF8C3
:10017000000050B12528EED10021002207910892FD
:1001800009910A920B910C9204E00D9800F058BE70
:1001900041F001011AF8010F2028F9D023280CD0D2
:1001A0002B2804D02D2805D0302809D00BE041F0B1
:1001B0000201EFE741F00401ECE741F00801E9E753
:1001C00041F01001E6E72A280FD1D9F8002052F8B3
:1001D000040BC9F8002000280F9003D540420F906F
:1001E00041F004010AF1010A14E00F92DFF8583CD3
:1001F0000AE00F98984205DA00EB800402EB440213
:10020000303A0F920AF1010A9AF80020A2F1300068
:100210000A28EED39AF800002E2803D04FF0FF32C0
:100220000E9229E01AF8010F2A2809D1D9F8000006
:1002300050F8042BC9F800000E920AF1010A1BE0E5
:100240002D280CBF0AF1010A002000220E92DFF8CF
:10025000F84B0BE040B90E9AA24205DA02EB820598
:1002600003EB4503303B0E930AF1010A9AF8003084
:10027000A3F130020A2AEDD3ADF840100FF6CC30CE
:100280009AF8001000F00EFF08B11AF8010B8DF873
:1002900042009DF84200682805D19AF800006828BD
:1002A0000CD1622106E06C2804BF9AF800006C288B
:1002B00004D171218DF842100AF1010A12A80690AA
:1002C0001AF801BBBBF125012CD01C3900F0D681F6
:1002D000091F022940F2D281133900F0E184093963
:1002E00000F0CC81891E00F07685491E00F0238540
:1002F000491E022940F2C281091F00F01C85491FD6
:1003000000F03181491E00F0CB84491E00F0D880F6
:10031000C91E0DD0891E00F0C384C91E00F0C08420
:1003200000F064BD25238DF84830012100F069BD3F
:10033000D9F8000050F8044BC9F80000002C0594CF
:1003400040F0AB802B994878002800F0A1804FF056
:10035000FF340FF6003000F0B5FE201A40F06E8535
:1003600000F050BD01236A4602A9304600F042FE6B
:10037000002840F063856D1EF4D13096079D12AFC2
:1003800075B1309E17F8012B02A9304600F022FE0D
:10039000002801D46D1EF5D10028309640F04E851E
:1003A0000A9D3020002D8DF800000CDD309E0123C9
:1003B0006A4602A9304600F01DFE002840F03E8546
:1003C0006D1EF4D13096059F089D75B1309E17F8CB
:1003D000012B02A9304600F0FDFD002801D46D1E5E
:1003E000F5D10028309640F029850B9D3020002D56
:1003F0008DF800000CDD309E01236A4602A93046CC
:1004000000F0F8FD002840F019856D1EF4D13096FB
:1004100005980899099D471875B1309E17F8012B6A
:1004200002A9304600F0D6FD002801D46D1EF5D19A
:100430000028309640F002850C9D3020002D8DF86C
:1004400000000CDD309E01236A4602A9304600F010
:10045000D1FD002840F0F2846D1EF4D130969DF855
:10046000400041077FF583AE2020002C8DF800006E
:100470007FF77DAE309D01236A4602A9284600F031
:10048000B9FD002840F0DA84641EF4D130956EE6A0
:100490000FF6C030059000F0B5BC0E9D002D04D5C0
:1004A000204600F02FFE044607E02A46204600F0D2
:1004B00045FE002814BF041B2C46089400F0A2BC83
:1004C000D9F8001051F8040BC9F8001020F000040E
:1004D000002121F0FF3512ABCDE902450593DDE99E
:1004E000022306993C2413B90AB90E98A0B102F070
:1004F0000F05641E30353A2D08DA12090D5542EA0F
:1005000003721B0908BF002A02D105E02735F4E772
:1005100005980D19A842EAD308190590C4F13C02C8
:100520000E98089282420ADABDF84010821A4FF6FD
:10053000EF7001400A92ADF8401000F063BC002853
:1005400040F160849DF8400000F01400102840F055
:1005500059840F9B07990A985B1A1B1A9A1A002A4A
:1005600040F350849AE32B99487820B14FF0FF3440
:100570000FF6B020EFE69DF84200622860D06828B0
:1005800017D06A283FD06C2806D0712847D074282D
:100590002CD07A281DD062E0D9F8001051F8040B55
:1005A000C9F80010002866D14FF0FF340FF68C20F8
:1005B000D1E6D9F8001051F8040BC9F8001020B9A1
:1005C0004FF0FF340FF67420C5E60D99018000F05E
:1005D00019BCD9F8001051F8040BC9F80010002814
:1005E00049D14FF0FF340FF65420B4E6D9F800108B
:1005F00051F8040BC9F8001000283CD14FF0FF342B
:100600000FF63820A7E6D9F8001051F8040BC9F806
:10061000001080B94FF0FF340FF620209BE6D9F888
:10062000001051F8040BC9F8001020B94FF0FF3446
:100630000FF608208FE60D9AD317C0E90023E1E3F7
:10064000D9F8001051F8040BC9F8001020B94FF088
:10065000FF340FF6E8107EE60D990170D2E3D9F869
:10066000001051F8040BC9F8001020B94FF0FF3406
:100670000FF6C8106FE60D990160C3E3D9F80020AA
:10068000D21D22F00702C9F80020D2E90001083289
:10069000C9F80020CDE90201C80F02D007982D212A
:1006A0000AE0BDF84000810702D507982B2103E03E
:1006B000C00705D50798202112AA1154401C0790A5
:1006C00012A80799DDE9024543184BF02000612884
:1006D000059321AE0BD00E98002802D506200E906F
:1006E00005E001BF4BF02000672801210E91DDE9F4
:1006F000020148004015401C0A460DD109030BD0E9
:10070000ABF1610703201A2F089002D20FF64811AF
:100710000DE00FF648110AE070B912030CD1ABF1ED
:10072000610703201A2F08901CD30FF638110322FB
:10073000184600F02FFD65E3DDE902016A4600F08E
:100740007DFDCDE902014BF02000612811D1059813
:1007500030210170821C0592BBF1610F0CBF782122
:10076000582102E00FF6F801E1E741700798801C7C
:100770000790DDE9020120F0000231F0004308BFDC
:10078000002A02D10025002445E14BF02008B8F1F1
:10079000610F40F095800E98002847BF21210191FC
:1007A000401C0190019F7F1C204629460022002307
:1007B000DDE9024500F07AFD38BF85F0004500997B
:1007C0008DF88420091F002F00910DF1850034DD84
:1007D0000646204629460022002300F081FD2BD248
:1007E0001C2200F097FD04460D4600F031FEFF1F6D
:1007F000002F804609DD00F047FE02460B462046EA
:10080000294600F009FF04460D46F01D0721B8F106
:10081000000F0CDD491E5EBF08F00F0200F8012D2D
:100820004FEA2818F3D502E0002200F8012D491EF6
:10083000FAD5C61D002FCCDC30460DF18501401ADB
:1008400001990DF1850605468842C8BF0D46002D69
:100850002FD4854206DA0DF18500415D0829A8BF35
:100860000F2000DA0020294621AA0A4400E06D1E6C
:1008700012F80139491E8342F9D00F2804D10DF135
:100880008500425C521C4254002904D50098001D8A
:1008900021AE6D1C0090681E0BD431180A783032DE
:1008A000D3B23A2BA4BF5A443A3A401E01F8012968
:1008B000F4D50E98002840F1AD80691E0E91A9E094
:1008C0000099DFF8002747F29750414391FBF2F27D
:1008D000009225F00045C2F10702002A04DD2046FF
:1008E000294600F04BFB0BE052420020DFF8D816FF
:1008F00000F044FB02460B462046294600F0FEFE6F
:1009000004460D46B8F1660F06BF009F0A3706275A
:100910000E983F18142FC8BF142730208DF884007C
:100920000DF1850000E03046002F35DD06462046FB
:10093000294601F007F801460A4606F1080304209B
:100940000A26B2FBF6F606EB860EA2EB4E0230321A
:1009500003F8012C0A22B6FBF2F202EB820EA6EBA0
:100960004E063036401E03F8026DE9D1083F002FD5
:1009700003F10806D7DD084600F0F6FF02460B46F5
:100980002046294600F048FE0022DFF8403600F0FD
:10099000F9FF04460D46CAE70DF18501401A0DF135
:1009A000850604E00099491E401E0091761C3178AE
:1009B0003029F7D0B8F1660F02D10099491C04E044
:1009C000B8F1650F0CBF012100210E9D4D19A84201
:1009D000B8BF451E002D1DD4854204DA705D342851
:1009E000C8BF392000DC30202946721E531800E0B1
:1009F0006D1E13F80149491E8442F9D0392802D1ED
:100A0000705C401C7054002904D50098401C1646A8
:100A10006D1C0090009C01F08BF8406A0778DDF8AF
:100A2000388028B2002802DC01250FF23C664BF02A
:100A30002000662808BF641C16D0672846D120B263
:100A400010F1040F48DB404546DA9DF84000641C75
:100A5000010703D428B24045D8BF804620B2B8EB86
:100A6000000848BF4FF000080FFA84FBBBF1000FED
:100A700000F3B5800898411C0891302205990A546A
:100A8000B8F1000F03DC9DF84000010704D5089879
:100A9000411C089105990F5418EB0B0FB8BFC8F112
:100AA000000424B26042A0442AB20B909045B8BF23
:100AB0004546059B08982DB209952A4631461844AB
:100AC00000F068FBA8EB05000C90D2E0BBF1610FD1
:100AD00017D14FF0700B19E028B2404504DA9DF8A9
:100AE00040100A0758BF8046B8F1010848BF4FF0D0
:100AF0000008BBF1670F14BF4FF0450B4FF0650BBB
:100B000004E0BBF1410F08BF4FF0500B0898411CA7
:100B10000891B8F1000F059916F8012B0A5403DC6F
:100B20009DF8400001071AD50898411C0891B8F1BA
:100B3000000F05990F5412DD6D1E28B28045B8BF15
:100B400045460598089B2AB23146184400F022FB1E
:100B500008992DB269180891A8EB05000B9005982B
:100B60000899084421B2002980F800B003D42B2250
:100B70004270821C04E02D2242700C46821C6442AA
:100B800000212CAB20460AE004460A2094FBF0F03A
:100B900000EB8005A4EB450403F8014B491C00B2AF
:100BA0000028F1DC012906DC4BF02000652804BF99
:100BB000302002F8010B00292CAB08D1302002F8BC
:100BC000010B06E0491E585C303002F8010B002989
:100BD000F8DC059908980844121A099249E028B2ED
:100BE00021B288421CDA0598089B2AB23146184483
:100BF00000F0D0FA08992DB269180891ABEB050006
:100C0000B8F1000F0B9003DC9DF84000020704D5FB
:100C1000059847540999491C0991CDF8308028E07E
:100C20000598089B22B23146184400F0B3FA0898A0
:100C30002D1B5844B8F1000F089003DC9DF84010BC
:100C40000A0703D5411C089105990F5428B2804525
:100C5000B8BF45460598089B2AB206EB0B0118441D
:100C600000F098FA08982DB228180890A8EB050013
:100C70000B909DF8400000F01400102840F0C28056
:100C8000079A08990B988A18099982180C988A185B
:100C900082180F98824280F2B580821A0A92B1E0DF
:100CA0009DF84200622808D068280ED06A2814D027
:100CB0006C281FD0712810D01CE0D9F8001051F812
:100CC000040BC9F80010C0B21AE0D9F8001051F8AE
:100CD000040BC9F8001080B212E0D9F80020D21D30
:100CE00022F00702C9F80020D2E900010832C9F851
:100CF000002006E0D9F8001051F8040BC9F80010E4
:100D00000021CDE902019DF8400001075AD5DDE937
:100D10000223002B08BF002A54D04BF02000782873
:100D200050D1079812A930220A54401C431C079343
:100D300001F800B046E09DF84200622808D068281B
:100D40000ED06A2814D06C281FD0712810D01CE057
:100D5000D9F8001051F8040BC9F8001040B21AE09D
:100D6000D9F8001051F8040BC9F8001000B212E0D5
:100D7000D9F80020D21D22F00702C9F80020D2E9DC
:100D800000010832C9F8002006E0D9F8001051F837
:100D9000040BC9F80010C117CDE90201002902D5E2
:100DA00007982D210AE0BDF84000810702D5079879
:100DB0002B2103E0C00705D50798202112AA115462
:100DC000401C079012A807990144059102A85946B2
:100DD00000F04EF816E001200790D9F8000050F816
:100DE000041BC9F800008DF848100BE025210122F2
:100DF000BBF1000F8DF84810079203D08DF849B071
:100E0000022107910F9A07980A990C9C121A0898C8
:100E1000521A0B99121A0998521A121A9DF8400088
:100E2000141B41073FF5AAAA2020002C8DF80000D2
:100E30007FF7A4AA309E2546FFF794BA4FF0FF3003
:100E400031B0BDE8F08F0000CBCCCC0C686A6C747C
:100E50007A4C00007072696E74665F733A2062614A
:100E60006420257320617267756D656E74000000E3
:100E70002DE9FC4304466F29256908BF082605D0E3
:100E800041F02000782814BF0A261026D4E9002358
:100E90003C2790469946642918BF692905D1002B43
:100EA00003D5D8F1000869EB4909B9F1000F08BF73
:100EB000B8F1000F0CD1206B50B9082E3AD194F83C
:100EC0003800010736D530203B2785F83B0031E05C
:100ED0008DF80010404649463246F31700F02CFECC
:100EE0003032D0B27F1E3A2801970EDAEA554046DA
:100EF00049463246F31700F01FFE80465FEA0109BB
:100F000008BFB8F1000F05D108E09DF800001218E5
:100F1000513AEBE7E068E9198842DBD3082E09D1A2
:100F200094F83800010705D5E85D302802D07F1E0F
:100F30003020E855C7F13C02A261E919E160206B5D
:100F4000824208DA821A22624FF6EF70218F014046
:100F50002187BDE8F38300280ED594F8380000F00F
:100F60001400102808D1636B6169206A5B1A1B1A90
:100F70009A1A002AC8BF2262BDE8F3832DE9D04344
:100F800006460F4614464FF00008DFF8449012E082
:100F9000E00707D542464B463046394600F0F2FCA2
:100FA00006460F464046494642464B4600F0EAFC9C
:100FB000641080468946002CEAD130463946BDE8A7
:100FC000D0830000A08601000000F03F84D7974145
:100FD0000000244010B503460C461146A06898470F
:100FE000A06020B1E06A401CE062002010BD4FF01C
:100FF000FF3010BDF8B505460E4617461C460020CA
:101000005CB117F8011BB068A847B06030B1F06A56
:10101000401CF0620020641EF3D1F2BD4FF0FF309F
:10102000F2BD00007072696E74665F733A20256EBF
:1010300020646973616C6C6F776564007072696EAF
:1010400074663A2062616420256E20617267756D56
:10105000656E7400000000006E616E004E414E002F
:10106000696E6600494E4600300030B501688468FC
:101070004218416802EB5103C90703D54C4401E013
:10108000491C08D19A4218BF12F9011B01D10C303A
:1010900030BD12F8015B002904F8015BF0D4491E51
:1010A000F7D5EFE7C9B202788A421AB11CBF10F82F
:1010B000012FF9E718BF002070470268531C036036
:1010C0001170704780B500B906A005490B681BB1C7
:1010D00022220021984701E000F046FE222002BDB6
:1010E00014150020636F6E73747261696E742068EA
:1010F000616E646C65723A20626164206D65737321
:101100006167650000F10103810704D010F8011B3D
:10111000820781B1FAD10268A2F10131914311F045
:10112000803104BF50F8042FF6E709BAB1FA81F113
:1011300000EBD100401CC01A70472E00C9B28307D3
:1011400006D0521E22D310F8013B9942F7D11FE07E
:10115000083A13D302F1040241EA012141EA0141B4
:1011600050F8043B121F21BF4B40A3F1013C2CEA75
:10117000030C1CF0803FF3D0C9B2001F083210F8F6
:10118000013B521E28BF91EA030FF8D818BF012077
:10119000401E704762B38B0708D0521E11F8013B06
:1011A00000F8013B00F024808B07F6D1830740F064
:1011B000208000BF103A07D330B4B1E83810103A9D
:1011C000A0E83810F9D230BC530724BFB1E80810AA
:1011D000A0E8081044BF51F8043B40F8043BD20794
:1011E00024BF31F8022B20F8022B44BF0B78037088
:1011F0007047121F17D35B0009D151F8043B20F848
:10120000023B1B0C121F20F8023BF6D20BE051F8F8
:10121000043B00F8013B1B0A20F8023B1B0C121F89
:1012200000F8013BF3D238BF121D521E24BF11F843
:10123000013B00F8013BF8D87047704710B51446E1
:1012400000F002F8226010BDC1F30A5343B14A0016
:1012500012F5001F28D2A3F2FE32A1EB0251704713
:1012600050EA410C20D001F0004C31EA0C01B1FAF7
:1012700081F204BFB0FA80F3D2180B3AB2F1200326
:101280002CBF00FA03F1914041EA0C013EBFC2F1CC
:10129000200C20FA0CF319439040524240F2FD33E7
:1012A000D21A01EB035170470022704741EA030C48
:1012B00050EA4C0C52EA0C0C4FF4001C09D307D036
:1012C0001CEB410F9CBF1CEB430F8B4208BF8242BB
:1012D00070471CEB430FFBD8994208BF9042704700
:1012E00041EA030C50EA4C0C52EA0C0C4FF4001C7F
:1012F00009D307D01CEB410F9CBF1CEB430F994255
:1013000008BF904270471CEB410FFBD88B4208BFCF
:1013100082427047124254D440F2FF7C1CEA1153BF
:101320000FD0634531D09B1863453CBF01EB0251A0
:10133000704701F0004141EA0C510020AFF30080FA
:10134000704750EA410320D001F0004C91EA0C01B3
:101350001CD0B1FA81F30B3B9A420DD9D21A9940B5
:1013600051EA0C01C3F1200C20FA0CFC61449840B6
:10137000531C40F2FF7CD7E7914041EA0C01C2F1D7
:10138000200C20FA0CF3194390407047B0FA80F318
:101390001533202BE0D3202AEED3203A203B9A426B
:1013A00009D9D21A00FA03F141EA0C010020531CBA
:1013B00040F2FF7CB8E700FA02F141EA0C0100209C
:1013C0007047524240F2FF7C1CEA11530DD0634536
:1013D000DBD0B2EB030C3CBFA1EB025170470CF128
:1013E000010221EA035141F4801150EA410CCCD0B2
:1013F00001F0004C352A27DC30B481EA0C01B2F14F
:10140000200309DAC2F12003044601FA03F5D040B3
:101410002843D1409C400CE0C3F12002450020FA53
:1014200003F418BF44F0010421FA03F091400C4387
:10143000002174F1004550F1000051EB0C012442F1
:1014400030BC7FF47BAF70476146002076E7704781
:10145000C1F30A5340F21E42D31A0CDDCA0283F3D1
:10146000070342EA505242F00042DA4002EBE172D6
:1014700082EAE17070476FEAE17203F2E13008B18D
:1014800082F000407047140010F0004160B148BF86
:101490004042B0FA80F29040D21CC2F5846241EA28
:1014A000025202EBD021400570470000841A71EB14
:1014B000030604D26E40001BB141121973414FF470
:1014C000001C1CEB410F34BF7CEB430683E00C0D8A
:1014D000A4EB1356362E00F37C80012E45EAC3237D
:1014E00041DC43EA525312BFD20292025B08240548
:1014F00045EAC12141EA5051D2EBC020994125D49F
:1015000007D1B0FA80F610FA06F162D0002020363A
:1015100008E0B1FA81F6B140C6F1200220FA02F2E9
:101520001143B0404FEAF474B4EB465434F0010672
:101530004FEA74040AD8D6F50016760D04F000447C
:10154000F04061FA06F25040F1404840C00A40EADB
:10155000415021F0004128BF5FEA500550F10000E2
:1015600044EBD12135E0DB0A45EAC121C90AB6F1D5
:1015700020050EDD42EA0242120CC5F1200603FAF4
:1015800006F6EB4042EA06056D42984161F1000122
:101590000DE062FA06F5F240554063FA06FC82EA75
:1015A0000C02F3405A406D42904161EB030111F48B
:1015B000801F05D1641E620502D06D004041494183
:1015C00021F48011430875F1004350F1000041EB14
:1015D000045170BC70471CEB410F15D223F000433F
:1015E00052EA43060BD04FEA4C0CBCEB410F04D837
:1015F0000C0D661E342EB7DDEBE7801A994150EAD8
:10160000410608BF0021E4E708BF1CEB430F28BFD9
:101610006FF00001DDE7000070B491EA030F4FF0B6
:1016200000457FF543AF6B40841A71EB030603D28C
:10163000001BB141121973414FF4001C1CEB410F08
:1016400034BF7CEB430442E00C0DA4EB1356352E63
:101650004FDC45EAC323DB0A45EAC121C912B6F1D2
:1016600020050DDD63FA05F6EB4086EA030512421C
:1016700018BF45F00105C01851F100010CD213E06C
:1016800062FA06F5F2405540F3415A40B340F34048
:101690005A408018594107D349085FEA30005FEA91
:1016A000350528BF45F0010501F58011420875F1A7
:1016B000004250F1000041EB04514E0016F5001FAE
:1016C00070BC38BF70470020090D090570471CEB3E
:1016D000410F10D252EA43060BD0BCEB410F05D8A4
:1016E0000C0DAB43661E342EB6DD02E0AB43801812
:1016F000594170BC704770BC70470000F0B540F2B3
:10170000FF7581EA030C0CF0004C15EA11541DBF63
:1017100015EA1357AC42AF42E5E0BC41C1F31301F7
:10172000C3F31303801A994143F4801304D2641E57
:101730000018494180185941C90241EA5051B1FB92
:10174000F3F603FB1611A2FB0675D7EBC020A941E7
:1017500002D2761E80185941C90241EA5051B1FBAC
:10176000F3FE03FB1E11A2FB0E75D7EBC020A941AF
:1017700003D2AEF1010E80185941890241EA90511D
:10178000760546EA8E2EB1FBF3F603FB1611A2FB9B
:101790000675D7EB8020A94102D2761E80185941E8
:1017A000C90241EA50514EEA060EB1FBF3F603FBC3
:1017B0001611A2FB0675D7EBC020A94102D2761EF6
:1017C00080185941C90241EA5051B1FBF3F703FBBC
:1017D0001711A2FB0735D3EBC020A94167F1000721
:1017E0000CBF004247F0010766F3D5274FEA1E31D0
:1017F000B80814F5806412DDBD0775F1004250EBA6
:101800000E5051EB045111F5801F5CBF41EA0C01F1
:10181000F0BD4CF07F6141F0E0410020F0BDBD071C
:101820006D0840EA0E5041F48011D4F10104B4F186
:1018300020060ADAC4F120060200E04001FA06F3AD
:10184000E1401843B24015430EE0342C13DCC6F1DE
:10185000200445EA40056D0820FA06F2154321FAF6
:1018600006F0A1400D43002175F1004250F1000047
:1018700051EB0C01F0BD00205FEA0C01F0BDCFB9C7
:1018800092185B41B3FA83F704BFB2FA82F6BF192C
:101890000B3FB7F120062FBF02FA06F3BB40C7F19A
:1018A000200622FA06F638BF3343BA401CB1E419C9
:1018B000641E33E77F4231F00041B1FA81F404BF86
:1018C000B0FA80F6A4190B3CB4F120062FBF00FA41
:1018D00006F1A140C4F1200620FA06F638BF3143D4
:1018E000A0403C1B1AE7AC421ABF05EA1357AF42AF
:1018F00012E050EA41061CBF52EA4306BFE750EA35
:101900004107304661461CBF41EA0551F0BD52EA2D
:10191000430C08BFC143F0BD00204FF4001616EB86
:10192000410F98BF16EB430F08BF16EB410F24BFC2
:10193000C14305E016EB430F0CBF61464CEA05516D
:10194000F0BD0000400D40F21E4C40EAC120BCEB4F
:10195000115C40F0004003D48CF30701C84070478D
:101960006FEAE1707047000050B1B0FA80F1884032
:10197000C91CC1F58461090501EBD0214005704700
:101980000146704730B540F2FF7C1CEA11541DBF80
:101990001CEA1355644565453FE0641981EA030C70
:1019A0006FF35F530CF0004C43F48013C90241F015
:1019B000004141EA505EC5021100A5FB0202002869
:1019C0004FF00000EEFB01204FF00001E3FB05218A
:1019D00018BF42F00102401800214941E3FB0E010B
:1019E000A4F580640D0302D292184041494154F19C
:1019F000010470DD450872F1004250F1000051EB26
:101A00000451A1F5801102D441EA0C0130BD40F22D
:101A1000FF7E4CEA0E51002030BD0CEA13556445A0
:101A200018BF654581EA030C0CF0004C41D050EA28
:101A3000410E1CBF52EA430E02E06146002030BD59
:101A400024422C441BD15FEA050EF6D0090302BFE5
:101A500001460020AEF1140EB1FA81F5AEEB05049B
:101A600001FA05FE0C35C5F1200100FA05F5C84064
:101A70004EEA000E6FF35F5343F480139CE733F09C
:101A80000043B3FA83F504BFB2FA82FE75440B3DFE
:101A9000641BB5F1200E2FBF02FA0EF3AB40C5F167
:101AA000200E22FA0EFE38BF43EA0E03AA40641C41
:101AB0007CE750EA410E14BF52EA430E6FF000017A
:101AC0004FF4001515EB430F8EBF194615EB410F70
:101AD0009DE7B4D830BDD4F10104B4F120050FDA8C
:101AE000C4F12005520828BF42F0010210FA05FE99
:101AF00001FA05F57244E2BFE0402843E1400FE0FF
:101B0000352C9ADCC5F1200452EA400220FA05F295
:101B100018BF42F0010231FA05F0A1400A4300214A
:101B200072F1004250F1000051EB0C0130BD000099
:101B3000004870472C000020BBBBE1B1B2F5803FEC
:101B400080F07E80022A1ED98C46B1FBF2F102FBA6
:101B500011C31B0443EA1043B3FBF2FC02FB1C332A
:101B600080B240EA0343B3FBF2F002FB103240EADA
:101B70000C4000237047022A05D98446B0FBF2F0DE
:101B800002FB10C270474AB105D100F001024908BA
:101B90005FEA3000704700220023704700F0E8B889
:101BA0000B000200002100207047904271EB030CF3
:101BB000F6D3B3F5803F2FD2F0B5B3FA83F7B1FA7D
:101BC00081F4A7F10F0E3D1B5340CEF1200602FA1F
:101BD0000EF2F3415340B5F10F0746D80F3C2C44A9
:101BE0004140C4F12006A040F1414140B1FBF3F671
:101BF00003FB1611A2FB0645001BA94102D2761E6B
:101C00008018594180EA010221FA0EF362FA0EF2BD
:101C100000215A403046F0BD30B4B1FBF3FC03FB69
:101C20001C11A2FB0C45001BA94103D2ACF1010C15
:101C30008018594130BC02460B466046002170476F
:101C4000B2F1807F65D3F0B5B2FA82F7B1FA81F4D0
:101C5000C7F10F063D1B22FA06F307F1110EF24100
:101C600020355A40B5F10F07B8D94140C4F12006DC
:101C7000A040F1414140B1FBF3FC03FB1C11A2FB6E
:101C80000C45001BA94103D2BCF1010C801859413D
:101C90000F2F12D30F3FC90341EA5041B1FBF3F6B6
:101CA00003FB1611A2FB0645D4EBC030A94102D2BA
:101CB000761E8018594146EACC3C07B34140C7F133
:101CC0002006B840F1414140B1FBF3F603FB161189
:101CD000A2FB0645001BA94102D2761E801859417D
:101CE00080EA010221FA0EF3C7F1200462FA0EF233
:101CF0000CFA07F05A402CFA04F13043F0BD80EAA8
:101D0000010221FA0EF3002162FA0EF260465A40F7
:101D1000F0BD8C46B1FBF2F102FB11C31B0243EA9A
:101D20001063B3FBF2FC02FB1C331B024CEA0020E5
:101D300043EA1063B3FBF2FC02FB1C331B024CEAC8
:101D4000002043EA1063B3FBF2FC02FB1C331B02CE
:101D50004CEA002043EA1063B3FBF2FC02FB1C32A6
:101D60004CEA002000237047012000F003B8000077
:101D70007047000080B5AFF30080024A11001820C0
:101D8000ABBEFBE7260002005FF0B0400068000D2C
:101D900010F0010070475FF0B040016851F48031ED
:101DA000016070475FF0B040016831F4803101603C
:101DB00070475FF0B0400068400C10F001007047C1
:101DC0005FF0B040016851F48071016070475FF0CE
:101DD000B040016831F48071016070475FF0B0403D
:101DE0000068800A10F001007047DFF88C190A685B
:101DF00032F0FE4252EA00620A607047DFF87C0966
:101E0000016851F0010101607047DFF87009016855
:101E10004908490001607047DFF860090068400820
:101E200010F001007047DFF85809016851F0010116
:101E300001607047DFF848090168490849000160FE
:101E40007047DFF83C09016851F0040101607047F8
:101E5000DFF82C09016831F0040101607047DFF8F8
:101E600020090068400810F001007047DFF8B80949
:101E7000016851F0010101607047DFF8AC090168A9
:101E80004908490001607047DFF89C090068400874
:101E900010F001007047DFF89009016851F004016B
:101EA00001607047DFF88009016831F004010160CA
:101EB0007047DFF874090068C00810F0010070472F
:101EC000DFF864190A6832F4706252EA00220A608C
:101ED00070475FF0B040016851F001010160704748
:101EE0005FF0B040016849084900016070475FF049
:101EF000B0400068400810F0010070475FF0B0414A
:101F00000A6832F0F00202430A6070475FF0B040A6
:101F1000006810F0F000B12801D3B021080070472C
:101F2000DFF854180A6832F47F4252EA00220A604D
:101F30007047DFF854190A689208920002430A6059
:101F40007047DFF84409006810F00C007047DFF8B4
:101F500038190A6832F0F00202430A607047DFF86D
:101F60002C190A6832F0F00202430A607047DFF869
:101F70001C190A681209120152EA10120A6070470D
:101F8000DFF804190A6832F4E06202430A6070471D
:101F9000DFF8F4180A6832F4605202430A607047AE
:101FA000DFF8E408006810F0F0007047DFF8DC08A4
:101FB0000068000110F0F0007047DFF8CC080068FE
:101FC00010F4E0607047DFF8C008006810F460505B
:101FD00070475FF0B040016851F080710160704758
:101FE0005FF0B040016831F08071016070475FF0D0
:101FF000B0400068400E10F001007047DFF8900814
:102000000068C0F306207047DFF88408006810F00D
:1020100060407047DFF87808006810F07000704783
:10202000DFF86C08006810F003007047DFF858080C
:102030000068000C10F001007047DFF850080068DD
:10204000400C10F001007047DFF840080068000CF9
:1020500010F001007047DFF830080068400C10F005
:1020600001007047DFF820080068800C10F00100C4
:1020700070472DE9F0470400002C01D1012095E2C2
:10208000207880066CD5FFF75CFF0500FFF7C8FFDE
:102090000700002D03D00C2D38D1012F36D1FFF7CA
:1020A00026FF002804D0E069002801D101207DE24C
:1020B000FFF72CFF616A88420DD2606A00F0EAFBEC
:1020C000002801D0012071E2606AFFF717FF206A43
:1020D000FFF726FF0CE0606AFFF710FF206AFFF7AA
:1020E0001FFF606A00F0D6FB002801D001205DE2EE
:1020F00000F09CFBDFF880180860DFF880080068BB
:1021000000F058FC00282BD001204FE2E0690028A5
:1021100016D0FFF7DEFE00F07BFC0600FFF7E7FEBF
:10212000002806D100F074FC801B0328F6D303209E
:102130003CE2606AFFF7E2FE206AFFF7F1FE0FE083
:10214000FFF7CEFE00F064FC0600FFF7D0FE00288B
:1021500006D000F05DFC801B0328F6D3032025E2A7
:102160002078C0073CD5FFF7ECFE0500FFF758FFCD
:102170000700082D03D00C2D0AD1032F08D1FFF73B
:1021800018FE00282CD06068002829D101200DE21B
:102190006068B0F5803F02D1FFF7FDFD01E0FFF779
:1021A00001FE606800280DD000F032FC0600FFF749
:1021B00000FE002814D100F02BFC801B6528F6D30C
:1021C0000320F3E100F024FC0600FFF7F2FD0028F5
:1021D00006D000F01DFC801B6528F6D30320E5E146
:1021E000207880073FD5FFF7ACFE0500FFF718FF0A
:1021F0000700042D03D00C2D0ED1022F0CD1FFF7B8
:10220000EDFD002804D0E068002801D10120CDE1D7
:102210002069FFF7EAFD26E0E068002813D0FFF709
:10222000CFFD00F0F5FB0600FFF7D8FD002806D132
:1022300000F0EEFB801B0328F6D30320B6E12069F3
:10224000FFF7D3FD0FE0FFF7C2FD00F0E1FB060052
:10225000FFF7C4FD002806D000F0DAFB801B03283E
:10226000F6D30320A2E1207810F0180F79D060692E
:10227000002856D02078C00636D5FFF705FE002886
:102280000FD1FFF7F3FD00F0C3FB0600FFF7FCFDE5
:10229000002806D100F0BCFB801B0328F6D30320E6
:1022A00084E1FFF7F8FD00F0B3FB0500FFF701FE46
:1022B000002806D100F0ACFB401B0428F6D3032015
:1022C00074E1A069FFF7FCFDFFF7D7FD00F0A0FB6C
:1022D0000600FFF7D9FD002843D000F099FB801BD2
:1022E0000328F6D3032061E1FFF7C0FD00F090FB67
:1022F0000600FFF7C9FD002806D100F089FB801B0E
:102300000328F6D3032051E1FFF7CCFDFFF7D1FD01
:10231000002826D000F07CFB801B0428F6D3032085
:1023200044E1FFF7BFFD00F073FB0500FFF7C1FDBF
:10233000002806D000F06CFB401B0428F6D30320D5
:1023400034E1FFF79AFD00F063FB0600FFF79CFD08
:10235000002806D000F05CFB801B0328F6D3032086
:1023600024E12078400748D5DFF814562868C005D6
:102370000ED400F053FB00F04BFB06002868C005AC
:1023800006D400F045FB801B0328F7D303200DE1A2
:10239000A068012802D1FFF746FD0BE0A0680528E0
:1023A00004D1FFF74EFDFFF73EFD03E0FFF742FDCE
:1023B000FFF74EFDA06800280FD000F029FB0600B3
:1023C000FFF74DFD002818D100F022FB801B41F2E1
:1023D00089318842F4D30320E8E000F019FB0600BD
:1023E000FFF73DFD002808D000F012FB801B41F2F2
:1023F00089318842F4D30320D8E02078400622D5E2
:10240000A06A00280FD0FFF7F9FC00F001FB0600DE
:10241000FFF702FD002816D100F0FAFA801B03280E
:10242000F6D30320C2E0FFF7F0FC00F0F1FA06005B
:10243000FFF7F2FC002806D000F0EAFA801B032820
:10244000F6D30320B2E0E06A002800F0AE80FFF788
:1024500078FD0500DFF83894D9F80070E06A0228AA
:1024600040F0818017F00300216B884218D117F0EB
:102470007000616B884213D1C7F30620A16B8842BC
:102480000ED117F47810E16B884209D117F0606023
:10249000216C884204D117F06040616C884246D0BC
:1024A0000C2D42D05FF0B04ADAF80000400101D5AF
:1024B00001207BE0FFF794FD00F0AAFA8046DAF8ED
:1024C0000000800107D500F0A3FAB0EB0800032854
:1024D000F5D303206AE0D9F80010DFF8A804014022
:1024E000206B0143606B0143A06B51EA0021E06B5C
:1024F0000143206C0143606C0143C9F80010FFF7F1
:1025000068FDD9F8000050F08050C9F8000000F0D4
:102510007FFA0600DAF80000800146D400F078FA6D
:10252000801B0328F6D3032040E001203EE05FF04B
:10253000B048D8F80000800137D4FFF74AFDD9F839
:10254000000050F08050C9F8000000F061FA060069
:10255000D8F80000800128D400F05AFA801B032824
:10256000F6D3032022E00C2D1DD0FFF739FDD9F85A
:10257000000080088000C9F80000D9F80010DFF8DA
:1025800008040140C9F8001000F042FA06005FF0AC
:10259000B0400068800108D500F03AFA801B03289B
:1025A000F5D3032002E0012000E00020BDE8F08721
:1025B000F8B504000D00002C01D10120DAE0DFF8AD
:1025C000CC73386810F00700A84213D23868C008EE
:1025D000C0002843386000F01BFA0600386810F08D
:1025E0000700A84206D000F013FA801B0328F5D399
:1025F0000320BFE02078800710D5A068FFF7A7FC74
:1026000000F006FA0600FFF711FD002806D100F0E1
:10261000FFF9801B0328F6D30320ABE02078800667
:1026200010D56069FFF79BFC00F0F2F90600FFF798
:1026300004FD002806D100F0EBF9801B0328F6D337
:10264000032097E02078400610D5A069FFF78FFCA3
:1026500000F0DEF90600FFF7F7FC002806D100F0D5
:10266000D7F9801B0328F6D3032083E020784007A6
:1026700010D5E068FFF784FC00F0CAF90600FFF708
:10268000EAFC002806D100F0C3F9801B0328F6D32A
:1026900003206FE02078000711D52069C000FFF704
:1026A00077FC00F0B5F90600FFF7DCFC002806D146
:1026B00000F0AEF9801B0328F6D303205AE02078FF
:1026C000C00735D56068022805D1FFF772FB0028E6
:1026D00019D101204EE06068032805D1FFF787FC7F
:1026E000002810D1012045E06068002805D1FFF7DF
:1026F000FEFB002807D101203CE0FFF76FFB00281C
:1027000001D1012036E06068FFF713FC00F080F98A
:102710000600FFF716FC6168B0EB810F08D000F0EF
:1027200077F9801B41F289318842F2D3032021E0FE
:10273000386810F00700854213D23868C008C0001E
:102740002843386000F064F90600386810F007008C
:10275000A84206D000F05CF9801B0328F5D30320C3
:1027600008E000F063F8DFF81012086000F081F96B
:1027700000F020F9F2BD0000040000589800005855
:1027800090000058F8B5FFF7DCFB0400002C08D1DE
:10279000FFF7BCFBDFF8F811C0F3031051F820007D
:1027A00041E0042C02D1DFF8EC013CE0082C09D117
:1027B000FFF7EAFA012802D1DFF8D80133E0DFF8A9
:1027C000D80130E0FFF72CFC05002800022802D0D9
:1027D000032804D00EE0DFF8BC01060012E0FFF78A
:1027E000D3FA012803D1DFF8AC01060001E06A4802
:1027F000060007E0FFF78AFB6549C0F3031051F8B4
:1028000020000600FFF7FAFB0700FFF703FC07FBB9
:1028100006F70009401CB7FBF0F7FFF7F5FB400F88
:10282000401CB7FBF0F0F2BD9400005810B5FFF764
:10283000A9FF0400FFF7B4FB5849C0F3031051F897
:102840002000B4FBF0F010BD10B5FFF7EFFF04005F
:10285000FFF7B3FB5249C0F3022011F8200010F03B
:102860001F00C440200010BD10B5FFF7DFFF0400BB
:10287000FFF7A9FB4A49C0F3C22011F8200010F06D
:102880001F00C440200010BD080000580801005877
:102890000C00005870B50400B12C02D33C48C66A45
:1028A00004E03B48C4F3031150F82160FFF77EFBBE
:1028B0003A49C0F3031051F82000B6FBF0F500F0E0
:1028C000EFF801003748B5FBF0F000F001F870BDFB
:1028D0002DE9F8418BB004000D0007A83249102201
:1028E000FEF768FC04A8314991E84C0080E84C00F0
:1028F00068462F491022FEF75DFC0026B5F5007FE3
:102900000ED1002004281AD207A951F82010A142A4
:1029100004D3694651F820100E0010E0401CF1E786
:10292000002003280BD204A951F82010A14204D39F
:10293000694651F820100E0001E0401CF1E7DFF875
:102940004C80D8F80000C008C0003043C8F8000030
:1029500000F05EF80700D8F8000010F00700B04261
:1029600006D000F055F8C01B0328F4D3032000E084
:1029700000200CB0BDE8F0812800002024000020D9
:10298000000400588C80C111FFFFFEEE004000588B
:10299000D88F00080024F4000048E801988F000850
:1029A0008895000840420F002897000864970008A7
:1029B0003897000870B504000025134E30780028C1
:1029C0001DD0FFF733FF4FF47A713278B1FBF2F18B
:1029D000B0FBF1F000F034F900280DD1102C08D232
:1029E000002221005FF0FF3000F00AF90748046080
:1029F00007E00120050004E00120050001E00120BE
:102A000005002800C0B270BDAD00002024000020E9
:102A100001480068704700BFFC14002002480168AC
:102A200051F4807101607047000400581848016833
:102A300051F00101016070471548016851F0020131
:102A40000160704710B500241248016851F480718C
:102A50000160032000F0CEF80F20FFF7ABFF002845
:102A600002D00120040001E000F022F92000C0B2F1
:102A700010BD09480068704708480078704780B565
:102A8000FFF7D4FF01BD80B5FFF7D6FF01BD000001
:102A9000042004E00040005824000020AD00002085
:102AA000DFF80800006810F4C060704700040058A8
:102AB00010B410F007036C4C22684FF6FF010A4077
:102AC00052EA032269490A43226010BC70476648F3
:102AD0000068C0F302207047010049B2002909D400
:102AE000012210F01F018A40614903005BB25B09BB
:102AF00041F823207047010049B200290DD401227A
:102B000010F01F018A405B4903005BB25B0941F88A
:102B10002320BFF34F8FBFF36F8F7047010049B27F
:102B2000002909D4012210F01F018A4052490300F4
:102B30005BB25B0941F823207047010049B20029CC
:102B400009D4012210F01F018A404C4903005BB2F6
:102B50005B0941F82320704710B4020052B2002AEA
:102B600005D40A01464B040064B21A5508E00A0174
:102B7000444B040064B214F00F04234403F8042C03
:102B800010BC704770B4030013F00704D4F10700C1
:102B9000052801D3042001E0D4F10700251D072DED
:102BA00001D2002500E0E51E012616FA00F0401EC5
:102BB0000140A94016FA05F56D1E2A401143080090
:102BC00070BC704710B50400601EB0F1807F01D367
:102BD00001200EE0601E2C4908600F215FF0FF30DD
:102BE000FFF7BAFF0020294908600720284908603C
:102BF000002010BD10B504002000FFF759FF10BDE4
:102C0000F8B504000D001600FFF761FF0700320061
:102C100029003800FFF7B6FF0100200040B2FFF79F
:102C20009BFFF1BD10B50400200040B2FFF754FF38
:102C300010BD10B50400200040B2FFF75CFF10BDCE
:102C400010B504002000FFF7BDFF10BD10B5040053
:102C5000200040B2FFF762FF10BD10B50400200055
:102C600040B2FFF76AFF10BD0CED00E00000FA056E
:102C700000E100E080E100E000E200E080E200E04E
:102C800000E400E018ED00E014E000E018E000E0EF
:102C900010E000E081B005490A6802430A60096853
:102CA00001400091009901B07047000050000058A9
:102CB00080B55FF40020FFF7EDFF002200212E20F9
:102CC000FFF79EFF2E20FFF7ADFF01BDDFF8581183
:102CD000096808407047DFF85011096808407047DC
:102CE00010B50400002C01D1012037E0A0690028B4
:102CF000FFD1D4F88400002805D1002084F880009A
:102D0000200000F0F1FD2420C4F884002068006851
:102D10004008400021680860200000F041FA0128C6
:102D200001D101201AE0A06A002802D0200000F0A2
:102D300095FB2068406830F4904021684860206826
:102D4000806830F02A00216888602068006850F0B0
:102D5000010021680860200000F0EDFB10BD70B597
:102D600005000C001600D5F88400202859D1002C4D
:102D700003D0300080B2002801D1012052E095F844
:102D80008000012801D102204CE0012085F880005C
:102D90002C65A5F85460A5F856600020C5F88C0095
:102DA0002120C5F88400A86F002824D0DFF8E403B0
:102DB000A96FC862DFF8E003A96F0863DFF8DC03DE
:102DC000A96F48630020A96F886333009BB228680D
:102DD00010F12802296DA86F00F05AFE00280AD0D1
:102DE0001020C5F88C00002085F880002020C5F850
:102DF0008400012016E0402029680862002085F840
:102E000080002868083050E8000F50F08000010072
:102E1000286810F1080242E800100028F1D10020D3
:102E200000E0022070BD0000880000582DE9F04746
:102E300006003068C7693068D0F800803068D0F884
:102E4000089040F60F043C40002C0ED1B8060CD57B
:102E50005FEA886002D45FEAC90006D5306F0028B7
:102E600002D03000316F884791E1002C00F0AD8036
:102E7000DFF8E00519EA000F05D1DFF8DC1518EAE4
:102E8000010F00F0A28017F00101C9B200290BD098
:102E90005FEAC85108D5012132681162D6F88C105A
:102EA00051F00101C6F88C10B9070DD519F00101D8
:102EB000C9B2002908D0022132681162D6F88C10FC
:102EC00051F00401C6F88C1079070DD519F00101F5
:102ED000C9B2002908D0042132681162D6F88C10DA
:102EE00051F00201C6F88C1039070ED55FEA8861EF
:102EF00002D419EA000F08D0082031680862D6F819
:102F00008C0050F00800C6F88C0038050CD55FEA3C
:102F1000481009D54FF4006031680862D6F88C007B
:102F200050F02000C6F88C00D6F88C0000284BD05A
:102F3000B8060BD55FEA886002D45FEAC90005D500
:102F4000306F002802D03000316F8847D6F88C00EF
:102F5000050030688068400602D415F0280F2DD097
:102F6000300000F0B6FB30688068400622D530683B
:102F7000083050E8000F30F040000100306810F1D8
:102F8000080242E800100028F1D1F06F00280DD0AF
:102F9000DFF8A007F16F8863F06F00F019FE0028DA
:102FA00012D0F06FF16F896B88470DE0300000F0B0
:102FB00035FF09E0300000F031FF05E0300000F09F
:102FC0002DFF0020C6F88C00E1E0F06E012840F0F3
:102FD000A780F80640F1A4805FEAC86040F1A080B5
:102FE00010203168086230688068400658D5F06F5C
:102FF0000068D0F804A0504680B200284FD0504658
:10300000B6F85C1080B2884249D2A6F85EA0F06F94
:1030100000680068800639D4306850E8000F30F44A
:1030200080700100326842E800100028F4D1306856
:10303000083050E8000F400840000100306810F1EF
:10304000080242E800100028F1D13068083050E84A
:10305000000F30F040000100306810F1080242E833
:1030600000100028F1D12020C6F888000020F0666A
:10307000306850E8000F30F010000100326842E87C
:1030800000100028F4D1F06F00F061FDB6F85C107C
:10309000B6F85E00091A89B2300000F0C0FE76E092
:1030A000B6F85C00B6F85EA0B0EB0A0AB6F85E00AF
:1030B000002834D0504680B2002830D0306850E824
:1030C000000F30F490700100326842E800100028D0
:1030D000F4D13068083050E8002FDFF87403024064
:1030E0001100306810F1080242E800100028F0D109
:1030F0002020C6F888000020F06600203067306885
:1031000050E8000F30F010000100326842E8001073
:103110000028F4D1514689B2300000F080FE36E03C
:10312000F8020AD55FEA492007D55FF480103168BC
:103130000862300000F074FE29E038060CD55FEA22
:10314000086002D45FEA092006D5706F002802D01B
:103150003000716F88471AE0780606D55FEA48604C
:1031600003D5300000F05AFB11E0380206D55FEAC3
:10317000480003D5300000F054FE08E0F80106D501
:10318000B8F1000F03D5300000F04CFEFFE7BDE8BA
:10319000F087000051370008A1370008B137000858
:1031A0002DE9F84F04000026DFF88C95206848458B
:1031B000FFD0A1682069014360690143E0690143D0
:1031C00020680268DFF8740502400A432068026044
:1031D0002068426832F44052E0680243206842604E
:1031E000D4F818802068484502D0206A50EA0808C0
:1031F00020688168DFF84805014058EA010120682D
:1032000081602068C16A09090901606A0143206878
:10321000C1622068DFF82C15884214D10320FFF723
:1032200055FD002805D0022805D006D3032806D076
:1032300007E0012725E0022723E0042721E00827F3
:103240001FE010271DE02068484519D14FF4406069
:10325000FFF741FD002809D0B0F5806F0AD0B0F526
:10326000006F05D0B0F5406F06D007E0002708E0FA
:10327000022706E0042704E0082702E0102700E008
:1032800010272068484553D13800C0B2002806D026
:10329000022808D0042809D008280BD00DE0FFF739
:1032A000D3FA81460DE0DFF8A0940AE0FFF76AFA4E
:1032B000814606E04FF4004903E05FF00009012079
:1032C0000600B9F1000F00F0B580DFF88014606AE5
:1032D00031F81000B9FBF0F08246626803204243E7
:1032E000924505D362684FF480504243524502D262
:1032F000012006009EE0606A31F81000B9FBF0F290
:103300004FF48073606840080021E3FB02016268AB
:103310000023FEF711FC0500B5F5407F05D3B5F598
:10332000801F02D22068C56084E00120060081E091
:10333000E069B0F5004F44D13800C0B2012806D092
:10334000022808D0042809D008280BD00DE0FFF788
:103350008BFA81460DE0DFF8F0930AE0FFF712FAEE
:10336000814606E04FF4004903E05FF000090120C8
:103370000600B9F1000F5DD0DFF8D003616A30F8C4
:103380001100B9FBF0F06168490811EB4001606879
:10339000B1FBF0F080B20500102D0FD3B5F5803FE2
:1033A0000CD24FF6F07129402800C0F342000143CF
:1033B0008B46584680B22168C8603BE00120060079
:1033C00038E03800C0B2012806D0022808D004280E
:1033D00009D008280BD00DE0FFF746FA81460DE032
:1033E000DFF864930AE0FFF7CDF9814606E04FF479
:1033F000004903E05FF0000901200600B9F1000F69
:1034000018D0DFF84803616A30F81100B9FBF0F01A
:10341000616810EB51006168B0FBF1F080B205000B
:10342000102D05D3B5F5803F02D22068C56001E0BC
:10343000012006000120A4F86A000120A4F8680019
:1034400000202067002060673000C0B2BDE8F28F26
:10345000FEFFFFEF010000102001000490F828108B
:10346000C90707D501684A6832F40032C16A0A43C5
:1034700001684A6090F82810890707D501684A68F2
:1034800032F48032016B0A4301684A6090F82810D8
:10349000490707D501684A6832F48022416B0A4324
:1034A00001684A6090F82810090707D501684A6842
:1034B00032F40042816B0A4301684A6090F8281098
:1034C000C90607D501688A6832F48052C16B0A4385
:1034D00001688A6090F82810890607D501688A6813
:1034E00032F40052016C0A4301688A6090F8281097
:1034F000490613D501684A6832F48012416C0A43C8
:1035000001684A60416CB1F5801F07D101684A68C3
:1035100032F4C002816C0A4301684A6090F82810B6
:10352000090607D501684A6832F40022C16C0A43D3
:1035300001684A60704738B504000020C4F88C0068
:10354000FFF766FA05002068006800070DD57FF0D8
:103550007E4000902B0000225FF40011200000F05C
:1035600023F8002801D003201DE0206800684007F0
:103570000DD57FF07E4000902B0000225FF480018B
:10358000200000F011F8002801D003200BE02020DB
:10359000C4F884002020C4F888000020E0660020E1
:1035A00084F88000002032BD2DE9F04105000E00B6
:1035B00017009846069C2868C0693040B04201D187
:1035C000012000E000203900C9B2884261D114F125
:1035D000010FF0D0FFF71CFAB0EB0800844201D3D2
:1035E000002C23D1286850E8000F30F4D07001007F
:1035F0002A6842E800100028F4D12868083050E812
:10360000000F400840000100286810F1080242E85D
:1036100000100028F1D12020C5F884002020C5F832
:103620008800002085F88000032033E028680068C7
:103630004007C0D52868C0690005BCD54FF40060BC
:1036400029680862286850E8000F30F4D070010043
:103650002A6842E800100028F4D12868083050E8B1
:10366000000F400840000100286810F1080242E8FD
:1036700000100028F1D12020C5F884002020C5F8D2
:1036800088002020C5F88C00002085F880000320E9
:1036900000E00020BDE8F081016851E8001F31F032
:1036A000C0010A00036843E800210029F4D1016841
:1036B000083151E8001F31F400010A00016811F1DE
:1036C000080343E800210029F1D12021C0F884102B
:1036D0007047016851E8001F31F490710A000368D7
:1036E00043E800210029F4D10168083151E8003F86
:1036F000DFF854110B401A00016811F1080343E888
:1037000000210029F0D1C16E01290AD1016851E8D8
:10371000001F31F010010A00036843E8002100296E
:10372000F4D12021C0F888100021C1660021016772
:10373000704700000338000800800040F369FFCFA5
:10374000FFF4FF11003801400024F40098960008AF
:1037500038B50400A56A2068006880061CD40020E3
:10376000A5F856002868083050E8000F30F08000B7
:103770000100286810F1080242E800100028F1D189
:10378000286850E8000F50F0400001002A6842E825
:1037900000100028F4D102E0280000F079FB31BDD0
:1037A00038B50400A56A280000F086FB31BD000092
:1037B000F8B50400A56AD5F88460D5F88870286843
:1037C0008068000607D5212E05D10020A5F85600F7
:1037D0002800FFF761FF28688068400607D5222F80
:1037E00005D10020A5F85E002800FFF772FFD5F88C
:1037F0008C0050F01000C5F88C00280000F00EFB83
:10380000F1BD38B50400A56A0020A5F85E000020CF
:10381000A5F85600280000F001FB31BD10B50400EA
:10382000206850E8000F30F040000100226842E8B4
:1038300000100028F4D12020C4F884000020606724
:10384000200000F025FB10BDFEFFFFEF81B05349C3
:103850000A6802430A60096801400091009901B0BA
:10386000704781B04E490A6802430A600968014006
:103870000091009901B0704710B54A4C4A48206049
:103880005FF4E13060600020A0600020E060002074
:1038900020610C2060610020A0610020E061002018
:1038A0002062002060620020A0622000FFF718FA6A
:1038B000002801D000F0BDFB0021200000F0DFFB5C
:1038C000002801D000F0B5FB0021200000F002FC30
:1038D000002801D000F0ADFB200000F0ADFB002877
:1038E00001D000F0A6FB10BD30B599B00400142142
:1038F00000226D46280000F057FC5021002205AD43
:10390000280000F051FC20682749884243D101205B
:10391000059000200B9005A800F01EFD002801D0A6
:1039200000F087FB4FF48040FFF79BFF0220FFF77A
:103930008DFFC02000900220019000200290002006
:103940000390072004906946184800F0D1FE184DF6
:10395000184828600F2068601020A8600020E860E8
:1039600080202861002068610020A8610020E861B3
:1039700000202862280000F01FF8002801D000F085
:1039800058FBA567AC62002200212420FFF738F91C
:103990002420FFF747F919B030BD00004C00005853
:1039A00060000058B01000200038014000040048BA
:1039B000D41200204400024038B50400002C01D18C
:1039C000012064E02068DFF82C1488420CD22168C2
:1039D000DFF8240441181420B1FBF0F0800060648B
:1039E000DFF8180420640BE02168DFF814044118A4
:1039F0001420B1FBF0F080006064DFF8080420645C
:103A0000022084F82500206805686FF30E15A06871
:103A10000543E06805432069054360690543A069E3
:103A20000543E0690543206A0543206805602000DE
:103A300000F0ADF9A068B0F5804F01D100206060C2
:103A4000207910F03F00A16C0860206DE16C4860A7
:103A5000606800280CD06068052809D2200000F0BA
:103A6000B6F90020616D0860E06DA16D486005E069
:103A7000002060650020A0650020E0650020E06374
:103A8000012084F82500002084F82400002032BDA5
:103A90002DE9F04104000D0016001F005FF0000842
:103AA00094F82400012801D102204EE0012084F87E
:103AB000240094F82500012840D1022084F8250034
:103AC0000020E0632068006840084000216808602A
:103AD0003B0032002900200000F037F9206B00285D
:103AE00006D02068006850F00E00216808600BE0E6
:103AF0002068006830F004002168086020680068D1
:103B000050F00A0021680860A06C0068C00305D569
:103B1000A06C006850F48070A16C0860606D002893
:103B200005D0606D006850F48070616D0860206899
:103B3000006850F001002168086004E0002084F86B
:103B40002400022080464046C0B2BDE8F08101005A
:103B5000002901D101203AE091F82500022806D081
:103B60000420C863002081F8240001202FE00868A9
:103B7000006830F00E000A681060886C006830F44D
:103B800080708A6C106008680068400840000A680D
:103B90001060012091F8442012F01C0290400A6C41
:103BA0005060086DCA6C5060486D002808D0486DA0
:103BB000006830F480704A6D1060C86D8A6D506086
:103BC000012081F82500002081F8240000207047A2
:103BD00038B50400002594F82500022804D00420FC
:103BE000E0630120050034E02068006830F00E003A
:103BF000216808602068006840084000216808606B
:103C0000A06C006830F48070A16C0860012094F80A
:103C1000441011F01C018840216C4860206DE16C5B
:103C20004860606D002808D0606D006830F48070D6
:103C3000616D0860E06DA16D4860012084F8250089
:103C4000002084F82400A06B002802D02000A16B83
:103C500088472800C0B232BD70B50400206C0568EA
:103C600020680668042094F8441011F01C0110FA32
:103C700001F10D4219D0710717D52168096889062D
:103C800005D42168096831F004012268116094F8B4
:103C9000441011F01C018840216C4860206B002802
:103CA00052D02000216B88474EE0022094F8441047
:103CB00011F01C0110FA01F10D421FD0B1071DD502
:103CC00021680968890608D42168096831F00A0169
:103CD00022681160012184F8251094F8441011F035
:103CE0001C018840216C4860002084F82400E06AB0
:103CF000002829D02000E16A884725E0082094F8B0
:103D0000441011F01C01884005421DD030071BD51E
:103D10002068006830F00E0021680860012094F8E7
:103D2000441011F01C018840216C48600120E063C0
:103D3000012084F82500002084F82400606B00280E
:103D400002D02000616B884770BD30B4046DC56C33
:103D50006C60446D002C02D0C46D856D6C600124D4
:103D600090F8445015F01C05AC40056C6C6004687C
:103D700063608468102C04D10468A2600468E16068
:103D800003E00468A1600468E26030BC7047016829
:103D9000184A914206D21C49426C920801EB8201FA
:103DA000816405E01949426C920801EB820181644B
:103DB000017801F0FF0108391422B1FBF2F2144935
:103DC000C164012312F01F018B4003657047017924
:103DD00011F03F010F4A12EB810242650E4A8265E3
:103DE000012211F1FF0313F003039A40C2657047EB
:103DF0000000000008040240F8FFFDBF0000024080
:103E0000F8FBFDBF00040240000802401C0802400D
:103E100080080240FC080240400902407047704799
:103E200070477047704700002DE9F84304000D000B
:103E300016001F005FF000085FF000092000C0B20C
:103E400000280BD11B48076018481949016032004F
:103E500092B22900FEF783FF8046FFE74046C0B2DA
:103E6000002805D0022809D005D3032809D00BE08B
:103E70000020814608E00120814605E002208146BD
:103E800002E003208146FFE74846C0B2BDE8F28366
:103E900010B5040020680649884206D10549086823
:103EA000002801D008688047FFE710BDB01000204F
:103EB00000380140DC140020704700004A490A68BD
:103EC00032F0180202430A60704781B047490A681D
:103ED00002430A60096801400091009901B07047EF
:103EE00018B585B0FEF7AEFD00F080FD00F030F8AB
:103EF00000F084F800F06FFF00F0A5FF00F0E8FF8D
:103F000000F0F9FF01F05CF80220FFF7DEFF38490E
:103F1000202008600120486000208860354C200087
:103F200000F0E6FB0220FFF7D0FF02200190062000
:103F30000490002002900220039001200090694626
:103F4000200000F0D5FB00F05BFD00F001FFFCE776
:103F500010B59AB04821002208AC200000F024F9E6
:103F60001C21002201AC200000F01EF9FEF756FDD6
:103F70000020FFF7A3FF20480121026861F34A22D5
:103F80000260006810F4C06000900098072008905C
:103F90005FF48030099001200A904FF480700B90FC
:103FA00040200C900020139008A8FEF762F800282B
:103FB00001D000F03EF86F20019002200290002016
:103FC000039000200490002005900020069000201F
:103FD0000790012101A8FEF7EBFA002801D000F0BC
:103FE00028F81AB010BD0000900000584C0000588E
:103FF00064140020000400480004005810B594B078
:10400000502100226C46200000F0CEF84FF44050C2
:1040100000904FF4804011900220129010201390D5
:10402000684600F099F9002801D000F002F814B0B9
:1040300010BD72B6FEE70000010091F88000012873
:1040400001D102201AE0012081F880002420C1F86B
:1040500084000868026808680068400840000B682F
:10406000186032F000520020486608680260202084
:10407000C1F88400002081F880000020704770B5EE
:1040800004000D0094F88000012801D1022020E0F6
:10409000012084F880002420C4F884002068066889
:1040A0002068006840084000216808602068806837
:1040B00020F06040284321688860200000F035F837
:1040C000206806602020C4F88400002084F8800066
:1040D000002070BD70B504000D0094F88000012828
:1040E00001D1022020E0012084F880002420C4F8BF
:1040F0008400206806682068006840084000216845
:1041000008602068806830F060602843216888601B
:10411000200000F00AF8206806602020C4F884001F
:10412000002084F88000002070BDF0B4416E0029AA
:1041300006D10121A0F86A100121A0F868102DE035
:1041400008210A0008210B0001688968490E11F056
:1041500007010C0001688968490F0D00104E114FCE
:104160009C465FFA8CFC2900C9B2795C01FB0CFC0F
:104170002900C9B2715C9CFBF1F1A0F86A10944669
:104180005FFA8CFC2100C9B2795C01FB0CFC2100B8
:10419000C9B2715C9CFBF1F1A0F86810F0BC7047EB
:1041A000A09700089897000862F30F2262F31F425D
:1041B000401810F0030308D0C91A1FD3DB0748BF0B
:1041C00000F8012D28BF20F8022D130030B414464A
:1041D0001546103928BF20E93C00FAD8490728BF06
:1041E00020E90C0048BF40F8042D890028BF20F8C2
:1041F000022D48BF00F8012D30BC7047C91818BF08
:1042000000F8012DCB0728BF00F8012D70470000F2
:10421000DFF83C03006810F001007047DFF830035E
:104220000068400810F001007047DFF828130A68A2
:1042300032F4404202430A607047DFF81C130A68F8
:104240009208920002430A607047DFF80C130A6874
:1042500032F0300202430A607047DFF800130A6848
:104260009208920002430A607047DFF8F0120A6871
:1042700032F4406202430A607047DFF8E0120A68D5
:1042800003001B0913F47F239A43030113F47F23D4
:104290001A430A607047DFF8C4221368010C09044E
:1042A0008B4353EA004313607047DFF8B0120A688B
:1042B00032F4400202430A607047DFF8A0120A6835
:1042C00022F0404202430A607047DFF890120A6809
:1042D00032F0406202430A60704710B504002000CB
:1042E000FFF7F3FF10BDDFF874120A6832F0405296
:1042F00002430A607047DFF858120A6832F44072CD
:1043000002430A607047DFF84802006810F440700A
:104310007047DFF83C02016851F48031016070475A
:10432000DFF82C02016831F48031016070475FF0E2
:10433000B040016851F08061016070475FF0B040AB
:10434000016831F08061016070475FF0B040006843
:10435000C00E10F0010070472DE9F047050000275E
:104360005FF000082878400625D5286B002810D07B
:10437000B0F5800F06D0B0F5000F10D0B0F5400FAB
:104380000CD00DE0DFF8D801016851F480310160F4
:1043900008E0281D00F0E6F8070003E002E001E075
:1043A000012007003800C0B2002803D1286BFFF7B6
:1043B0007CFF00E0B8462868000533D5FFF7A3FF6F
:1043C0000400286C84422CD0FEF728FB002C03D17B
:1043D000286CFFF790FF22E0DFF874A1DAF8009074
:1043E000FFF797FFFFF79CFF39F44079286C50EAFC
:1043F0000909CAF80090FFF70BFF01280FD1FEF75B
:1044000007FB0600FFF70AFF012808D0FEF700FBB4
:10441000801B41F289318842F4D303200700B8465B
:1044200000E0B8462878C00702D5A869FFF715FF55
:104430002878800702D5E869FFF717FF2878C006BB
:1044400002D5A86AFFF727FF2878800602D5E86A18
:10445000FFF721FF2878400702D5286AFFF70DFFF4
:104460002878000702D5686AFFF707FF2868C005AB
:1044700019D5686BFFF731FF686BB0F1006F05D19C
:10448000DFF8DC00016851F080710160686BB0F109
:10449000806F08D1281D00F0A6F807003800C0B2D0
:1044A000002800D0B8462868800521D5A86BB0F157
:1044B000804F06D0A86BB0F1004F02D0A86B002847
:1044C00003D1A86BFFF7F9FE08E0AC6B34F0805421
:1044D0000020FFF7F2FE2000FFF7F7FEA86BB0F117
:1044E000C05F05D1DFF87800016851F0807101608C
:1044F0002868400519D5E86BFFF7F5FEE86BB0F1C9
:10450000005F05D1DFF85800016851F48031016087
:10451000E86BB0F1805F08D1281D00F0A5F8070016
:104520003800C0B2002800D0B8462868C00402D5C0
:10453000686CFFF77AFE2868800405D5E86CFFF701
:1045400084FEA86CFFF779FE4046C0B2BDE8F08754
:10455000900000589400005824000058880000582B
:104560000C000058F8B504000025FFF7E7FEFEF741
:104570004FFA0600FFF7E9FE002806D0FEF748FADA
:10458000801B0328F6D3032005002800C0B20028B2
:1045900026D1DFF85871386830F4FE40216850EABF
:1045A00001203860396831F478116068014339605E
:1045B000FFF7BDFEFEF72CFA0600FFF7C6FE012846
:1045C00006D0FEF725FA801B0328F6D3032005004A
:1045D0002800C0B2002803D139682069014339603E
:1045E0002800C0B2F2BDF8B504000025FFF7A6FE12
:1045F000FEF70EFA0600FFF7A8FE002806D0FEF729
:1046000007FA801B0328F6D3032005002800C0B258
:10461000002826D1DFF8D470386830F4FE402168D5
:1046200050EA01203860396831F06061A0680143C8
:104630003960FFF77CFEFEF7EBF90600FFF785FE19
:10464000012806D0FEF7E4F9801B0328F6D30320E7
:1046500005002800C0B2002803D139682069014351
:1046600039602800C0B2F2BDF8B504000025FFF79C
:1046700065FEFEF7CDF90600FFF767FE002806D0BD
:10468000FEF7C6F9801B0328F6D303200500280097
:10469000C0B2002825D1154F386830F4FE4021689B
:1046A00050EA01203860396821F06041E068014338
:1046B0003960FFF73CFEFEF7ABF90600FFF745FE59
:1046C000012806D0FEF7A4F9801B0328F6D30320A7
:1046D00005002800C0B2002803D1396820690143D1
:1046E00039602800C0B2F2BD000000001000005880
:1046F000F0B4030000250868E840002800F0CD80F1
:1047000001260F6816FA05F007403A00002A00F06B
:10471000C280087910F00300012804D0087910F055
:10472000030002281DD19F685FF0030C2800C0B26F
:1047300040001CFA00FC37EA0C07D1F80CC0280036
:10474000C0B240001CFA00FC5CEA07079F60586892
:10475000AE40B0434E68C6F30016AE40304304008E
:104760005C60087910F0030003280ED0DE68032790
:104770002800C0B240008740BE438F682800C0B206
:10478000400087403E433400DC60087910F00300AD
:10479000022818D12800C00803EB8000066A0F2702
:1047A00015F00700C0B280008740BE430F6915F0C6
:1047B0000700C0B2800087403E4334002800C00894
:1047C00003EB800004621E6803272800C0B240008B
:1047D0008740BE430F7917F003072800C0B240009E
:1047E00087403E4334001C60486810F4403F52D07C
:1047F000394F2800800857F820605FF00F0C15F043
:104800000300C0B280001CFA00FC36EA0C06B3F1CB
:10481000904F01D1002414E03048834201D101249B
:104820000FE02F48834201D102240AE02D48834241
:1048300001D1032405E02C48834201D1042400E087
:10484000072415F00300C0B28000844026432800EE
:10485000800847F82060254C206890434F68FF028D
:1048600000D510432060224E346894434F68BF0245
:1048700000D5144334601F4E306890434F68FF03E7
:1048800000D5104330601C4E346894434F68BF031A
:1048900000D5144334606D1C2DE7F0BC7047130045
:1048A000DBB2002B03D00B009BB2836102E00B0054
:1048B0009BB28362704710B5040010480168220063
:1048C00092B2114206D0210089B20160200080B26C
:1048D00000F061FA10BD000008000140000400482B
:1048E00000080048000C004800100048000800586C
:1048F0000408005880080058840800580C08005824
:10490000DFF890130A68D208D20002430A607047A9
:10491000DFF884130A6802430A607047DFF87C13EB
:10492000DFF87C230A600A6832F47C5252EA0022E3
:104930000A607047DFF86C130A6832F400420243E1
:104940000A607047DFF86003016851F4803101604C
:104950007047DFF85403016831F48031016070471B
:10496000DFF848030068800E10F001007047CF4860
:104970000068000F10F00100704781B0CC490A6850
:1049800002430A60096801400091009901B0704734
:10499000C8480068000C7047426852EA0142426011
:1049A000704742680A4342607047426952EA0142D6
:1049B0004261704742690A434261704781607047B3
:1049C00081617047BC48016831F0040101607047A3
:1049D000FF2141627047CA21416253214162704701
:1049E0008268D208D2000A438260704780B54FF4D3
:1049F0000040B249086000F017F800F04CF801BD23
:104A000080B500F053F800F066F8AD49002000F0E2
:104A1000A6FD00F092FF00F069F801BD704780B577
:104A20000020FFF775FF01BD80B500F003F800F02E
:104A300013F801BD80B5FFF793FF00280BD0FFF7F7
:104A400096FF002807D1FDF7E9FFFDF7E7FFFFF725
:104A500079FFFFF77EFF01BD10B55FF48010FFF70F
:104A60008CFF984C3F212000FFF7A8FF3F2120003A
:104A7000FFF7A6FF3F212000FFF78EFF3F21200018
:104A8000FFF793FF3F212000FFF78BFF3F2120001E
:104A9000FFF790FF10BD10B5002001F01FF80400D3
:104AA000002C02D0A079FFF739FF10BD80B5FFF7C9
:104AB000B5FFFFF7B4FF00F001F801BD10B5824C5F
:104AC0002000FFF788FF00212000FFF789FF20006A
:104AD000FFF77EFF10BD80B54FF40040FFF72AFFBF
:104AE00001F014F80420FFF70BFF01BD80B588B07A
:104AF00001F034F8754A00214FF4806001F042FA69
:104B0000734800900FF22D00019069460FF22900C2
:104B100001F0D6FA6F4802906F4803906F480490F6
:104B200040F23C50059002A801F0CCF801F012F8D8
:104B300009B000BD7047000038B584B0040060685B
:104B400010F10B05684601F0C1FB9DF802309DF89D
:104B500001209DF80010624801F032FC9DF804101D
:104B6000604801F02DFC9DF80C309DF80B209DF85D
:104B70000A105D4801F024FC28884FF41241401AC5
:104B80000CD0401E0ED0401E10D0801E19D0401EEA
:104B90001DD0401E1FD0401E23D026E0200000F074
:104BA0003BF822E0200000F022F81EE04F4801F020
:104BB00007FCD5F80620D5F802104D4801F000FC9E
:104BC00013E0D5F802104B4801F0FAFB0DE04A481B
:104BD00001F0F6FB09E0D5F80210484801F0F0FBBF
:104BE00003E0474801F0ECFBFFE705B030BD70B5CE
:104BF0000400606810F10B05AE1C3178414801F0EB
:104C0000DFFB3078002803D13F4801F0D9FB02E0F8
:104C10003E4801F0D5FB70BDF8B584B004000E210C
:104C200000226D462800FFF7BFFA0025606810F1EA
:104C30000B06B71C387800281ED1354801F0C0FBA0
:104C400000F08BFE0D208DF800007F208DF8020013
:104C5000FFF79EFE050029002E4801F0B1FB280059
:104C6000ADF80C00684601F023FB01F0D8FB0021F1
:104C7000012000F052FF0BE03878012805D12648CA
:104C800001F09EFB0020207002E0244801F098FB18
:104C900005B0F0BD80040058900800589C000058F2
:104CA000FECAFECA08000058900000589400005840
:104CB00050000058002004E010ED00E010400058C3
:104CC000C0130020000C005800280040DD600008E0
:104CD0006C0503208407032078060320300003209E
:104CE000A8940008F8950008809600085C930008D6
:104CF000108F000808920008149600089090000891
:104D00003096000888930008C89000083C9200087C
:104D1000D492000868950008B4930008E093000856
:104D200070B50400FDF774FE0500260016F1010FB2
:104D300004D0FDF7A1FE56FA80F00600FDF768FEEC
:104D4000401BB04203D2FFF73DFE30BFF6E770BD17
:104D500080B55FF0FF3001F07BF801BD704738B5DA
:104D600004000D005FF0FF3001F072F831BD10B5A6
:104D7000040000214FF4806001F014F910BD10B55B
:104D80000400022001F034F910BD10B50400022027
:104D900001F038F910BD10B50400200080B20128E0
:104DA00006D0022807D0102808D101F094FF05E0B2
:104DB00001F0A7FF02E001F0BFFFFFE710BD000018
:104DC00081B018490A6802430A60096801400091ED
:104DD000009901B0704780B513481449016002F092
:104DE00055F8002801D0FFF724F901BD10B50400E3
:104DF00020680E49884213D15FF48010FFF7E0FF6E
:104E0000002200212C20FDF7FBFE2C20FDF70AFFDD
:104E1000002200212D20FDF7F3FE2D20FDF702FFDB
:104E200010BD00005000005884130020000C0058F2
:104E300081B024490A6802430A6009680140009170
:104E4000009901B0704718B585B0142100226C4656
:104E50002000FFF7A9F90420FFF7EAFF0820FFF779
:104E6000E7FF0220FFF7E4FF102000905FF48814B2
:104E700001940120029069461348FFF739FC032092
:104E8000009001940120029069461048FFF730FC21
:104E9000002200210620FDF7B3FE0620FDF7C2FE2A
:104EA000002200210720FDF7ABFE0720FDF7BAFE28
:104EB000002200210A20FDF7A3FE0A20FDF7B2FE22
:104EC00006B010BD4C00005800080048000C004817
:104ED000704700002F48016851F40041016070479D
:104EE00081B02D490A6802430A60096801400091B7
:104EF000009901B0704710B5284C29482060002067
:104F000060600F20A06047F6FF70E0600020206125
:104F10000020A0610020E06100206061200001F01D
:104F2000F3FF002801D0FFF784F8002200212000C1
:104F300002F094F8002801D0FFF77BF810BD38B5D7
:104F400094B00400502100226D462800FFF72CF990
:104F50002068134988421AD14FF4006000904FF442
:104F6000807010906846FFF7F7F9002801D0FFF72E
:104F700060F8FFF7AFFF4FF48060FFF7B1FF00224A
:104F800000210320FDF73CFE0320FDF74BFE15B08A
:104F900030BD00009000005858000058C013002099
:104FA0000028004081B005490A6802430A60096888
:104FB00001400091009901B070470000480000587E
:104FC00080B50420FFF7EEFF0120FFF7EBFF002282
:104FD00000210E20FDF714FE0E20FDF723FE01BD7B
:104FE000DFF8DC180A6802430A607047DFF8D4185B
:104FF0000A6802430A607047DFF8CC28116889B25A
:10500000106880B2814204D0010013689BB218007E
:10501000F8E7704730B41822DFF8B0380C00E4B27B
:1050200054431C44647D2500EDB2062D04D02500B8
:10503000EDB255431D4428750500EDB255431D449E
:105040006C750500EDB255431D4429750D00EDB298
:1050500002FB05F21A44507530BC704730B40B00A7
:10506000DFF86C482478DBB2A3421ED01823DFF8A7
:105070005C480D00EDB25D4325442D7D2A001500EE
:10508000EDB25D43254468750500EDB25D432544EE
:1050900069750500EDB25D4325442A750D00EDB23A
:1050A00003FB05F3234418750DE01823DFF81C48B3
:1050B0000500EDB25D43254469750D00EDB203FBBB
:1050C00005F32344187530BC70472DE9F8430400FC
:1050D000DFF8FC8798F80000062818D198F800003F
:1050E000DFF8F017087088F800400621DFF8DC27A9
:1050F0002300DBB21820434302EB030041755FF04D
:10510000FF30DFF8D41708605FF0000953E000F0CB
:10511000B4F881461820DFF8B4172200D2B2424317
:105120000A442300DBB243430B449B6813FA89F320
:1051300093602200D2B242430A449268150098F864
:105140000020D2B242430A449268954226D398F88E
:10515000002016003200D2B242430A44527D1700AA
:105160003A00D2B2062A12D03A00D2B242430A44DE
:10517000926895420BD3F6B2464301EB0602567D88
:105180003200D2B242430A44527D1700E8E73100B0
:10519000C9B22000C0B2FFF73DFF0CE098F8001044
:1051A0002000C0B2FFF75AFF98F80000DFF824177C
:1051B000087088F80040484680B2BDE8F283F0B439
:1051C000DFF80C5702002E78D2B2B2420ED12A7804
:1051D000DFF800673270DFF8F4660700FFB21822CC
:1051E000574306EB0702527D2A702CE01822DFF8A5
:1051F000DC660700FFB2574337443F7D3B000700A2
:10520000FFB2574337447F7D3C001F00FFB2574336
:10521000374484465FFA8CFC02FB0CFCB4449CF8D7
:1052200015C087F815C02700FFB2062F0BD0270046
:10523000FFB25743374484465FFA8CFC02FB0CF202
:105240003244127D3A750126DFF8807684465FFA93
:105250008CFC182202FB0CFC07EB0C0216732A785C
:10526000062A08D10A00D2B2002A04D15FF0FF3228
:10527000DFF864562A60F0BC704738B5DFF858563E
:10528000286810F1010F19D0FFF7B6FE0100286859
:10529000884203D32868411A080006E0DFF83C067C
:1052A0000088401A040028682018DFF834160978AE
:1052B0004843DFF830160978C84000E0002080B28B
:1052C00032BD38B50400200080B2002808D1FFF7B5
:1052D00093FEDFF8041608600320FDF7B7FC37E003
:1052E000200080B2022804DADFF8F80500780128EF
:1052F00000D0641EDFF8F05528680068C0684007D9
:10530000F8D528680068C06810F0800070F49060DC
:1053100029680968C8605FF40020DFF8D0150860CC
:105320000320FDF79AFCDFF8C805016864F30F015C
:105330000160FFF761FEDFF8A015086028680068CB
:10534000806850F48060296809688860AFF3008045
:1053500031BD2DE9F843DFF89C050068400506D50E
:10536000DFF8840500680068C0684007F8D4DFF8FB
:10537000780501680968896831F48061006800680F
:105380008160DFF84C0506781824DFF840553000BE
:10539000C0B2604328448768FFF76FFF80464046ED
:1053A00080B2874206D25FF000090120DFF848157D
:1053B000087013E0DFF84405018811FA88F1B9425A
:1053C00006D2B0F800900020DFF82C15087005E038
:1053D000B7EB08090120DFF8201508703000C0B2D3
:1053E000062823D03000C0B260432844806841467C
:1053F00089B2884206D23000C0B2604328440021FE
:1054000081600DE03000C0B2604305EB0001300068
:10541000C0B2604328448268404680B2121A8A6053
:10542000F6B2664305EB0600467DD7E7484680B2F4
:10543000FFF747FFBDE8F1832DE9F047EFF3108652
:1054400072B6DFF8A474CA2039680968486253202C
:1054500039680968486238680068806830F480609C
:10546000396809688860DFF8680490F800A05FF088
:105470001808DFF858945046C0B208FB00F04844C2
:10548000007B02284FD15046C0B208FB00F059F80B
:10549000000004005046C0B208FB00F04844006918
:1054A0000500DFF854040078002837D05046C0B219
:1054B00008FB00F04844407B01281AD101215046E6
:1054C000C0B2FFF77CFE86F310885046C0B208FBDE
:1054D00000F809EB080041685046C0B200F08DF9B1
:1054E000CA203968096848625320396809684862E7
:1054F0000DE086F310885046C0B200F01DF9CA20B6
:10550000396809684862532039680968486222008E
:105510005146C9B2280001F031FE1AE0FFF719FF29
:1055200086F3108815E038680068C0684007FAD52F
:1055300038680068C06810F0800070F490603968C6
:105540000968C8605FF40020DFF8A013086086F3E4
:105550001088FF20396809684862BDE8F0872DE9A6
:10556000F04104000D00DFF880733D60CA20396807
:10557000096848625320396809684862DFF8740393
:10558000016851F020010160DFF85813006810F045
:105590000700D0F104000870DFF84403DFF860234F
:1055A000136813F4FE031B0C5B1C0370DFF82C3331
:1055B00012685204520C521C1A80B3F80080B8F1E1
:1055C0000108007800FB08F8B8F5A078087838FAE8
:1055D00000F84FF6FF70804503D3DFF820130880F2
:1055E00003E0DFF81803A0F800805FF40020FFF765
:1055F000FDFC5FF40020FFF7F3FC2000C0B20028A0
:105600003CD10120BC4908705FF0FF30B24908600E
:10561000002006003000C0B206280ADA0021AB4A9A
:105620003300DBB21820434302EB03000173761C06
:10563000F0E70620A649087038680068806830F4F2
:10564000806039680968886038680068C06810F050
:10565000800070F4906039680968C8605FF40020C9
:10566000A24908600320FDF7F8FA386800688068EE
:1056700050F4804039680968886007E0386800683D
:10568000C068400502D50320FDF7E0FAFF20396825
:1056900009684862002203210320FDF7B1FA0320C4
:1056A000FDF7C0FABDE8F081F0B504000026EFF385
:1056B000108572B63000C0B206280DDA834FB446AA
:1056C0005FFA8CFC182000FB0CFC07EB0C00007B45
:1056D000002801D0761CEDE73000C0B2062826D0A5
:1056E00018207A4FB4465FFA8CFC00FB0CFCBC44DB
:1056F0005FF0010E8CF80CE085F31088B4465FFA79
:105700008CFC00FB0CFCBC44CCF81040B4465FFAA7
:105710008CFC00FB0CFCBC448CF80D20B4465FFAFA
:105720008CFC00FB0CF03B500E70002002E085F377
:1057300010880120C0B2F0BDF8B50400EFF3108668
:1057400072B60320FDF775FA674FCA2039680968F9
:10575000486253203968096848625C492200D2B225
:105760001820424301EB0200007B02283BD10021BC
:105770002000C0B2FFF723FD55480078050028003F
:10578000C0B2062827D15B480068400504D53868B8
:105790000068C0684007FAD438680068806830F450
:1057A000806039680968886038680068C0684007A8
:1057B000FAD538680068C06810F0800070F4906016
:1057C00039680968C8605FF4002048490860032010
:1057D000FDF743FA07E03F4800782900C9B2884244
:1057E00001D0FFF7B6FDFF20396809684862032041
:1057F000FDF718FA86F31088F1BD2DE9F84F040083
:105800000D005FF0180ADFF8C4B02000C0B20AFB38
:1058100000F05844007B022803D12000C0B2FFF7FB
:105820008BFFEFF3108672B60320FDF702FA2E4FBE
:10583000CA20396809684862532039680968486293
:105840002000C0B20AFB00F058440221017320007E
:10585000C0B20AFB00F0584485602000C0B20AFBC9
:1058600000F0584445602000C0B2FFF72EFC80468F
:10587000174890F80090174800784946C9B2884206
:1058800002D0FFF766FD10E02000C0B20AFB00F076
:105890000BEB00012000C0B20AFB00FA0BEB0A0080
:1058A0008268404680B2121A8A60FF20396809680F
:1058B00048620320FDF7B6F986F31088BDE8F18F42
:1058C0008008005800080058282800404011002097
:1058D0003215002033150020201500202615002049
:1058E0002D1500202C150020D81400200C0800587D
:1058F00014280040082800403415002028150020F6
:105900001028004065490A6802430A60704781B068
:1059100063490A6802430A600968014000910099DE
:1059200001B0704781B05F490A6802430A600968A4
:1059300001400091009901B0704780B5FDF79FF8D4
:10594000FDF7A1F85FF48030FFF7DCFF01F03BFCCE
:1059500000F011F800F0B0F801BD00B587B068465E
:1059600051491C22FBF726FC00F0F1F9684600F0D3
:1059700090FC07B000BD2DE9F84185B0142100224C
:105980006C462000FEF710FC0024002500260027AE
:105990003800C0B226282CDA44493800C0B201EBE6
:1059A000C0008079002822D03800C0B251F8300001
:1059B000B0F1904F06D03E4A90420AD03D4A904204
:1059C0000ED014E03800C0B201EBC0008088044360
:1059D0000DE03800C0B201EBC0008088054306E04E
:1059E0003800C0B201EBC00080880643FFE77F1C8F
:1059F000CEE70020029001200190032003902000B8
:105A000080B2002814D0200080B200900120FFF75F
:105A10007EFF0120FFF786FF69465FF09040FEF7AA
:105A200067FE0022210089B25FF09040FEF737FF49
:105A3000280080B2002814D0280080B200900220F4
:105A4000FFF765FF0220FFF76DFFDFF8648069460E
:105A50004046FEF74DFE0022290089B24046FEF77F
:105A60001EFF300080B2002814D0300080B20090B9
:105A70000420FFF74CFF0420FFF754FFDFF83480C9
:105A800069464046FEF734FE0022310089B24046A6
:105A9000FEF705FF06B0BDE8F08100009008005851
:105AA0004C0000584C010058DC9500080C8C000894
:105AB0000004004800080048704780B5FDF7DCFE90
:105AC00001BD70B504000D00160033002A0092B22B
:105AD00021000020FEF7A8F970BD00000100094870
